:100000000C94DA000C9487080C9460080C9439085E
:100010000C9412080C9402010C9402010C94EB074E
:100020000C9402010C9402010C9400050C946F05D1
:100030000C94AE080C9402010C9402010C94020181
:100040000C9402010C9402010C9402010C94020124
:100050000C9402010C9402010C9402010C94A1076F
:100060000C9402010C9402010C9402010C94020104
:100070000C9402010C9402010C9402010C940201F4
:100080000C9402010C9402010C9402010C940201E4
:100090000C9402010C9402010C9402010C940201D4
:1000A0000C9402010C9402010C9402010000000067
:1000B0002300260029002C002F0000000002000968
:1000C0000F0000030401000C00000000000000000D
:1000D0000000000000000000070605040100080AF7
:1000E0000B0C0D09080B00020202000009040000BD
:1000F0000102020000052400100105240101010491
:1001000024020605240600010705810310004009AA
:10011000040100020A000000070502024000000777
:100120000583024000000403090412010002EF02EB
:1001300001404F1B069200010102030153706172DE
:100140006B46756E00537061726B46756E2050720F
:100150006F204D6963726F000000000025002800C9
:100160002B002E00310000000000240027002A0090
:100170002D003000040404040403040502020202FA
:100180000403020202020606060606060404020230
:100190000204040408020110408040102040804006
:1001A00080080204018040201002011080102040CD
:1001B0004020C50811241FBECFEFDAE0DEBFCDBF5F
:1001C00011E0A0E0B1E0EAEAF5E102C005900D928D
:1001D000A433B107D9F721E0A4E3B1E001C01D9237
:1001E000A93AB207E1F710E0CAEDD0E004C02197C8
:1001F000FE010E94CD0AC93DD107C9F70E94DA0865
:100200000C94D30A0C94000090E0FC01ED56FE4FD4
:1002100024918C589E4FFC018491882399F090E0A2
:10022000880F991FFC01EA59FE4FA591B491FC017A
:10023000E85AFE4F859194918FB7F894EC91E22B98
:10024000EC938FBF0895FC018091A701882311F1E1
:100250003FB7F89482E08093E9002091F200822F6A
:1002600090E01816190614F481E090E0882339F024
:10027000289844E64093A6014091F1004083222350
:1002800039F02091F200211103C02BE62093E80001
:100290003FBF08958FEF9FEF08952FB7F89483E045
:1002A0008093E9009091E800892F807295FF04C047
:1002B0009091F20080E4891B2FBF089580919E01E8
:1002C00081110DC082E080939A0184E080939B01AC
:1002D00010929D0110929C0181E080939E018AE919
:1002E00091E00895CF93DF931F92CDB7DEB7698376
:1002F000DC01ED91FC910280F381E02D41E050E0C2
:10030000BE016F5F7F4F09950F90DF91CF910895E8
:1003100083E08093E9008091F200882319F08AE35A
:100320008093E80008950E944D0190E00895CF93D6
:10033000DF931F92CDB7DEB7FC018485958597FDCD
:1003400008C02FEF3FEF358724870F90DF91CF91C3
:100350000895CE0101960E942301019719F4898125
:1003600090E0F3CF8FEF9FEFF0CF0F931F93CF93DA
:10037000DF931F92CDB7DEB78C01FC018485958594
:1003800097FF0BC0CE0101960E942301019771F4E3
:10039000898190E0F80195878487F80184859585A7
:1003A0000F90DF91CF911F910F9108958FEF9FEFE5
:1003B000F1CFFC018485958597FD0BC09FB7F8941C
:1003C00082E08093E9008091F2009FBF90E0019667
:1003D00008959FB7F89482E08093E9008091F2003D
:1003E0009FBF90E0089540914401509145012091B4
:1003F00042013091430142175307B4F49091E80051
:100400009570E1F39091E80092FD19C08093F1009E
:10041000809144019091450101968F739927892B12
:1004200019F48EEF8093E80080914401909145018A
:100430000196909345018093440181E0089580E006
:100440000895EF92FF920F931F93CF93DF93F82EAF
:10045000192FE62E042F81E0860F880F0E94F301EA
:1004600083E00E94F301CF2DD12FEC0EFD2EF11C65
:10047000CE15DF05B9F007FF13C0FE0184910E947D
:10048000F301182F80E00E94F3018123219681114E
:10049000EFCFDF91CF911F910F91FF90EF900895D3
:1004A0008881EDCF81E0F5CFDF92EF92FF920F933D
:1004B0001F93CF93DF93D82E8A01EB017B01E40ECB
:1004C000F51ECE15DF0559F0D7FE12C0FE0184914E
:1004D0000E94F30121968111F4CF0FEF1FEFC801A5
:1004E000DF91CF911F910F91FF90EF90DF900895D2
:1004F0008881EECF0F931F93CF93DF931F92CDB7D9
:10050000DEB782E0898342E450E064EE70E080E888
:100510000E9454020E945E01DC0112960D911C9112
:100520000115110589F0D801ED91FC910280F3814C
:10053000E02DBE016F5F7F4FC801099597FD04C094
:10054000F80100851185ECCF89810F90DF91CF9163
:100550001F910F910895615030F02091F100FC013E
:1005600020830196F8CF289884E68093A601089509
:1005700081E080933E01089581E080930E0108950B
:1005800081508F3008F047C0E82FF0E0E653FD4F70
:100590000C94CD0AE702EB02D902DF02E3020B035F
:1005A0000B030B03EE02F402F802FC0202030B033E
:1005B0000603809180008F7780938000089580915A
:1005C00080008F7DF9CF80918000877FF5CF84B543
:1005D0008F7784BD089584B58F7DFBCF8091900087
:1005E0008F77809390000895809190008F7DF9CF50
:1005F00080919000877FF5CF8091C0008F778093A6
:10060000C00008958091C0008F7DF9CF8091C20015
:10061000877F8093C2000895CF93DF93282F30E027
:10062000F901E654FF4F8491F901ED56FE4FD49144
:10063000F901EC58FE4FC491CC23A1F081110E9426
:10064000C002EC2FF0E0EE0FFF1FE455FF4FA59125
:10065000B491EC91ED2381E090E009F480E0DF912A
:10066000CF91089580E090E0FACF1F93CF93DF936E
:10067000282F30E0F901E654FF4F8491F901ED563F
:10068000FE4FD491F901EC58FE4FC491CC23A9F050
:10069000162F81110E94C002EC2FF0E0EE0FFF1F19
:1006A000E85AFE4FA591B4918FB7F894EC911111CF
:1006B00008C0D095DE23DC938FBFDF91CF911F91CF
:1006C0000895DE2BF8CF3FB7F894809139019091CF
:1006D0003A01A0913B01B0913C0126B5A89B05C011
:1006E0002F3F19F00196A11DB11D3FBFBA2FA92FB1
:1006F000982F8827BC01CD01620F711D811D911DAE
:1007000042E0660F771F881F991F4A95D1F7089519
:100710008F929F92AF92BF92CF92DF92EF92FF9211
:100720004B015C010E9463036B017C010E94630327
:100730006C197D098E099F09683E734081059105FA
:10074000A8F321E0821A9108A108B10888EEC80E2A
:1007500083E0D81EE11CF11C81149104A104B104B2
:1007600029F7FF90EF90DF90CF90BF90AF909F90D0
:100770008F9008958F929F92AF92BF92CF92DF9207
:10078000EF92FF920F931F93CF93DF936C017B0146
:100790008A0180911A01882309F45CC08091A70125
:1007A000882309F457C08091490180FF05C08091DA
:1007B000E00082608093E000E801B12C8AEFA82E6F
:1007C00093E0892E2AE3922E209711F4BB20D9F1D1
:1007D0000E944D0181110AC0AA94AA20D9F161E0BA
:1007E00070E080E090E00E948803EECF8C171D0639
:1007F00011F00CF08C2F9FB7F8948092E9002091B3
:10080000E80025FD02C09FBFDFCF282F30E0C21BCC
:10081000D30BF701815020F041914093F100FACFC2
:10082000E20EF31EBB2021F09092E800B12CEBCF3A
:100830008091E80085FDE7CF9092E800BB24B39457
:10084000209709F3F3CF5D9884E680934801101652
:1008500011063CF081E090E0F6019383828310E082
:1008600000E0C801DF91CF911F910F91FF90EF90B1
:10087000DF90CF90BF90AF909F908F900895089594
:100880004115510529F4EAE7F0E080818F778083F4
:100890006A307105B9F0CB01880F991F880F991F35
:1008A000807267706860682B88E10FB6F894A8952D
:1008B000809360000FBE60936000E0E6F0E080810E
:1008C00080648083232BB1F483B7817F846083BFEE
:1008D000F89483B7816083BF7894889583B78E7FBF
:1008E00083BF7894452B29F4EAE7F0E080818068A3
:1008F0008083089583B7817F846083BFF89483B732
:10090000816083BF7894889583B78E7F83BF789406
:10091000E9CF61E08AE00E94350360E087E00E9451
:10092000350361E086E00E94350361E08EE00C94BF
:10093000350361E08AE00E94350361E087E00E94B0
:10094000350360E086E00E94350361E080E10C94AD
:1009500035030E94890461E085E00E94350388E048
:100960000E940C03892BD9F360E085E00E943503D7
:1009700060E087E00E94350360E086E00E94350376
:1009800060E08AE00E94350360E08EE00E9435035B
:1009900060E080E10E94350360E090E080E00E942A
:1009A000BF0A1092A80108950E94990461E085E0B1
:1009B0000E94350389E00E940C03892BD9F360E083
:1009C00085E00E94350360E087E00E94350360E027
:1009D00086E00E94350360E08AE00E94350360E013
:1009E0008EE00E94350360E080E10E94350361E003
:1009F00090E080E00E94BF0A81E08093A801089502
:100A00001F920F920FB60F9211248F939F93809194
:100A1000E1009091E100937F9093E10083FF0FC08C
:100A20001092E90091E09093EB001092EC0092E3B9
:100A30009093ED001092A70198E09093F00082FF50
:100A400022C093E09093E9009091F200992319F06D
:100A50009AE39093E80090914801992341F0909196
:100A60004801915090934801911101C05D9A909175
:100A7000A601992341F09091A60191509093A6016F
:100A8000911101C0289A84FF18C08091E2008E7EE7
:100A900081608093E2008091E1008F7E8093E1008D
:100AA000809149018E7E8061809349019F918F9151
:100AB0000F900FBE0F901F90189580FFF7CF809179
:100AC000E2008E7E80618093E2008091E1008E7E64
:100AD0008093E100809149018E7E8160E5CF1F9275
:100AE0000F920FB60F921124CF92DF92EF92FF92E6
:100AF0000F931F932F933F934F935F936F937F9326
:100B00008F939F93AF93BF93EF93FF93CF93DF9315
:100B1000CDB7DEB76C97DEBFCDBF1092E9008091F4
:100B2000E80083FF25C068E0CE0145960E94AB0235
:100B300082EF8093E8008D8987FF39C09091E800AB
:100B400090FFFCCF982F907609F034C19E894F8991
:100B5000588D2F89F88C911131C0803861F58091C2
:100B600047018093F1001092F1008EEF8093E8002E
:100B70006C960FB6F894DEBF0FBECDBFDF91CF915C
:100B8000FF91EF91BF91AF919F918F917F916F9165
:100B90005F914F913F912F911F910F91FF90EF9097
:100BA000DF90CF900F900FBE0F901F9018959EEF83
:100BB0009093E800C7CF1092F100D5CF913059F44F
:100BC0008111D3CF4130510581F6809147018D7F4E
:100BD00080934701CACF933049F48111C6CF413089
:100BE000510519F6809147018260F2CF953041F4AA
:100BF0008091E80080FFFCCF20682093E300B5CF10
:100C0000963009F0A9C00B8D1C8D22E01092E900EE
:100C10001092450110924401F2122EC0109243012D
:100C2000109242010E947A021F8299E09983FA820F
:100C300091E09E8390EA98879AEF998720914401EA
:100C400030914501275F3F4F3C832B838D8310926A
:100C5000E900109245011092440110934301009362
:100C6000420149E050E0BE016F5F7F4F80E00E948B
:100C700054020E947A0279CF1093430100934201FB
:100C80000E945E01DC0112960D911C910115110567
:100C900009F451C1D801ED91FC910480F581E02D5A
:100CA000BE016B5E7F4FC8010995009709F03EC1F8
:100CB000F80100851185EACFF3E0FF120EC08F899D
:100CC000882309F440C0823061F440E862E185E4A1
:100CD00091E00E942102811148CF81E28093EB00D4
:100CE00047CF813029F440E868E08CE391E0F1CF10
:100CF000833099F70E945E01DC011296ED90FC9022
:100D00008E010F5F1F4F6801E114F10479F0D701E4
:100D1000ED91FC910680F781E02DB801C70109959E
:100D2000080F111DF701E084F184EECFD8011C9269
:100D3000F60101900020E9F73197BF016C197D0998
:100D400040E0C601C6CF66E271E0FB01449150E08D
:100D500080E80E94540209CF973009F4BECF983042
:100D600021F481E08093F10000CF993009F0FDCEAD
:100D7000837009F0B2CFECE1F1E081E031E096E37D
:100D80002191222371F08093E9003093EB00DF0181
:100D900011972C912093EC009093ED008F5F87309A
:100DA00079F78EE78093EA001092EA008F898093AA
:100DB000A701DBCE8B8D9C8D1092E900109245012E
:100DC000109244019093430180934201898D8111D7
:100DD00092C08E899D89913A49F4813209F07DCF84
:100DE00047E050E063E171E080E0B3CF913209F079
:100DF00074CF833269F48F89988DB0E0A0E080933E
:100E00000F0190931001A0931101B0931201ADCE88
:100E1000803269F48091E80082FFFCCF67E083E1D3
:100E200091E00E94AB028BEF8093E8009ECE82326D
:100E300009F09BCE8F8980931A01EEEFFFE7859131
:100E400094918B3F9C4D51F1E0E0F8E080911301CB
:100E500090911401A0911501B0911601803B94402E
:100E6000A105B105F1F480911A0180FD1AC0EE3F91
:100E70008AE0F80789F587E797E791838083809177
:100E800060008093460188E19BE00FB6F894A89536
:100E9000809360000FBE9093600067CEEEEFFAE0A3
:100EA000D5CF808191818737974709F05ECEA8958D
:100EB00080916000886180936000809146018093FA
:100EC0006000EE3F2AE0F20789F08091FE0A9091DF
:100ED000FF0A9183808349CE80819181873798076B
:100EE00051F29093FF0A8093FE0AC5CF1092FF0A39
:100EF0001092FE0A3ACE0E945E01DC0112960D911C
:100F00001C910115110509F4E8CED801ED91FC9171
:100F10000190F081E02DBE016B5E7F4FC801099505
:100F2000811123CEF80100851185EBCF1816190623
:100F30000CF41BCED2CEF1E0FF12BECE6AE271E01D
:100F400004CF1F920F920FB60F9211242F933F934D
:100F50008F939F93AF93BF9380913501909136010A
:100F6000A0913701B09138013091340123E0230F73
:100F70002D3758F50196A11DB11D209334018093A2
:100F8000350190933601A0933701B09338018091D9
:100F9000390190913A01A0913B01B0913C01019639
:100FA000A11DB11D8093390190933A01A0933B019B
:100FB000B0933C01BF91AF919F918F913F912F9141
:100FC0000F900FBE0F901F90189526E8230F0296E2
:100FD000A11DB11DD2CF1F920F920FB60F921124F7
:100FE0002F933F934F935F936F937F938F939F9331
:100FF000AF93BF93EF93FF93E0910801F091090144
:101000000995FF91EF91BF91AF919F918F917F9142
:101010006F915F914F913F912F910F900FBE0F9065
:101020001F9018951F920F920FB60F9211242F93B5
:101030003F934F935F936F937F938F939F93AF9360
:10104000BF93EF93FF93E0910601F091070109959B
:10105000FF91EF91BF91AF919F918F917F916F9190
:101060005F914F913F912F910F900FBE0F901F9066
:1010700018951F920F920FB60F9211242F933F9342
:101080004F935F936F937F938F939F93AF93BF9390
:10109000EF93FF93E0910401F09105010995FF9111
:1010A000EF91BF91AF919F918F917F916F915F91E0
:1010B0004F913F912F910F900FBE0F901F90189559
:1010C0001F920F920FB60F9211242F933F934F93BD
:1010D0005F936F937F938F939F93AF93BF93EF93A0
:1010E000FF93E0910201F09103010995FF91EF91C7
:1010F000BF91AF919F918F917F916F915F914F9130
:101100003F912F910F900FBE0F901F9018951F9237
:101110000F920FB60F9211242F933F934F935F932B
:101120006F937F938F939F93AF93BF93EF93FF93AF
:10113000E0910001F09101010995FF91EF91BF91BC
:10114000AF919F918F917F916F915F914F913F915F
:101150002F910F900FBE0F901F9018951F920F9216
:101160000FB60F9211248F930FB6F894A895809123
:101170006000886180936000109260000FBE8F91C4
:101180000F900FBE0F901F901895EAE4F1E01382C4
:10119000128288EE93E0A0E0B0E084839583A6837A
:1011A000B78386E291E0918380838FEF9FEF9587ED
:1011B00084870895789484B5826084BD84B5816005
:1011C00084BD85B5826085BD85B5816085BD809112
:1011D0006E00816080936E0010928100809181008A
:1011E0008260809381008091810081608093810082
:1011F0008091800081608093800080919100826066
:101200008093910080919100816080939100809102
:1012100090008160809390008091C10084608093F1
:10122000C1008091C10082608093C1008091C100A3
:1012300081608093C1008091C30081608093C3006E
:101240008091C00082608093C0008091C200816064
:101250008093C20080917A00846080937A008091AC
:101260007A00826080937A0080917A008160809316
:101270007A0080917A00806880937A001092A701AA
:1012800010924701109249018091D70081608093AC
:10129000D70080EA8093D80089B5806189BD89B57F
:1012A000826089BD09B400FEFDCF61E070E080E09E
:1012B00090E00E9488038091D8008F7C80618093A9
:1012C000D8008091E000807F8093E0008091E10071
:1012D0008E7E8093E1008DE08093E200559A209A03
:1012E00090E080E00E94B70A8093A80185E00E9408
:1012F000040187E00E94040186E00E94040184E06A
:101300000E9404018EE00E94040180E10E94040119
:101310008AE00E94040160E085E00E94350360E0FD
:1013200087E00E94350360E086E00E94350360E0BC
:1013300084E00E94350360E08EE00E94350360E0A7
:1013400080E10E94350360E08AE00E94350388EB6B
:1013500092E0909307018093060180916900806C70
:1013600080936900EB9A8CEB92E090930501809357
:10137000040180916900806380936900EA9A88ED96
:10138000E82E80E0F82E00E010E030E020E050E0B1
:1013900040E069E070E081E491E00E944004C09187
:1013A0003F01D09140012196D0934001C0933F016D
:1013B00080913E018130C9F48091A801813091F47F
:1013C0000E94A90410923E0110920E0180913F01EB
:1013D00090914001059708F45BC010924001109273
:1013E0003F0156C00E94D404EDCFD0900E0181E0A1
:1013F000D81255C080913D01811126C00E948904F8
:10140000D0923D0161E085E00E94350380910E019C
:101410008130F9F468EC70E080E090E00E9488038D
:1014200080E00E940C0380930E01813079F7809157
:101430003D01813009F097C088E00E940C030197BC
:1014400029F710920E01E2CF0E94990410923D01FB
:10145000D9CF60E085E00E94350360E087E00E941C
:10146000350360E086E00E94350360E08AE00E9478
:10147000350360E08EE00E94350360E080E10E9469
:10148000350310923E0110920E01259708F0A5CF6A
:101490000115110509F479CF0E94000076CF259738
:1014A000B8F361E084E00E94350364E670E080E018
:1014B00090E00E948803F701849120917B00982F8F
:1014C000990F990F90722F7D922B90937B008770CC
:1014D000806480937C0080917A00806480937A009D
:1014E00080917A0086FDFCCF80917800C0917900D0
:1014F000DC2FC82FD0930D01C0930C0164E670E07F
:1015000080E090E00E94880360E084E00E94350360
:10151000C331D105C8F480910A0190910B01439722
:1015200030F08091A801813011F40E94A9048091CB
:101530000C0190910D0190930B0180930A01109280
:101540003E0110920E0149CF6A9788F380910A01FB
:1015500090910B014A9758F78091A8018111E7CF2C
:101560000E94D404E4CF811151CF89E066CFF9996C
:10157000FECF92BD81BDF89A992780B50895262F98
:10158000F999FECF1FBA92BD81BD20BD0FB6F89468
:10159000FA9AF99A0FBE01960895EE0FFF1F059073
:0A15A000F491E02D0994F894FFCFB8
:1015AA003F043F043F043F043F04E803E80301FF0C
:1015BA00FFFFFF00E100000000000000C180810081
:1015CA000000000000007201BA0393018801D901EA
:0415DA009701B501BF
:00000001FF
